{
  "contractName": "Auth",
  "abi": [
    {
      "anonymous": false,
      "inputs": [
        {
          "indexed": false,
          "internalType": "string",
          "name": "username",
          "type": "string"
        },
        {
          "indexed": false,
          "internalType": "string",
          "name": "email",
          "type": "string"
        },
        {
          "indexed": false,
          "internalType": "string",
          "name": "password",
          "type": "string"
        }
      ],
      "name": "userCreated",
      "type": "event"
    },
    {
      "constant": true,
      "inputs": [],
      "name": "userCount",
      "outputs": [
        {
          "internalType": "uint256",
          "name": "",
          "type": "uint256"
        }
      ],
      "payable": false,
      "stateMutability": "view",
      "type": "function"
    },
    {
      "constant": true,
      "inputs": [
        {
          "internalType": "string",
          "name": "",
          "type": "string"
        }
      ],
      "name": "usersList",
      "outputs": [
        {
          "internalType": "string",
          "name": "username",
          "type": "string"
        },
        {
          "internalType": "string",
          "name": "email",
          "type": "string"
        },
        {
          "internalType": "string",
          "name": "password",
          "type": "string"
        }
      ],
      "payable": false,
      "stateMutability": "view",
      "type": "function"
    },
    {
      "constant": false,
      "inputs": [
        {
          "internalType": "string",
          "name": "_username",
          "type": "string"
        },
        {
          "internalType": "string",
          "name": "_email",
          "type": "string"
        },
        {
          "internalType": "string",
          "name": "_password",
          "type": "string"
        }
      ],
      "name": "createUser",
      "outputs": [],
      "payable": false,
      "stateMutability": "nonpayable",
      "type": "function"
    }
  ],
  "bytecode": "0x60806040526000805534801561001457600080fd5b506109ab806100246000396000f3fe608060405234801561001057600080fd5b50600436106100415760003560e01c806307973ccf146100465780634cbce6ac1461006457806359ae069b14610270575b600080fd5b61004e610459565b6040518082815260200191505060405180910390f35b61011d6004803603602081101561007a57600080fd5b810190808035906020019064010000000081111561009757600080fd5b8201836020820111156100a957600080fd5b803590602001918460018302840111640100000000831117156100cb57600080fd5b91908080601f016020809104026020016040519081016040528093929190818152602001838380828437600081840152601f19601f82011690508083019250505050505050919291929050505061045f565b60405180806020018060200180602001848103845287818151815260200191508051906020019080838360005b8381101561016557808201518184015260208101905061014a565b50505050905090810190601f1680156101925780820380516001836020036101000a031916815260200191505b50848103835286818151815260200191508051906020019080838360005b838110156101cb5780820151818401526020810190506101b0565b50505050905090810190601f1680156101f85780820380516001836020036101000a031916815260200191505b50848103825285818151815260200191508051906020019080838360005b83811015610231578082015181840152602081019050610216565b50505050905090810190601f16801561025e5780820380516001836020036101000a031916815260200191505b50965050505050505060405180910390f35b6104576004803603606081101561028657600080fd5b81019080803590602001906401000000008111156102a357600080fd5b8201836020820111156102b557600080fd5b803590602001918460018302840111640100000000831117156102d757600080fd5b91908080601f016020809104026020016040519081016040528093929190818152602001838380828437600081840152601f19601f8201169050808301925050505050505091929192908035906020019064010000000081111561033a57600080fd5b82018360208201111561034c57600080fd5b8035906020019184600183028401116401000000008311171561036e57600080fd5b91908080601f016020809104026020016040519081016040528093929190818152602001838380828437600081840152601f19601f820116905080830192505050505050509192919290803590602001906401000000008111156103d157600080fd5b8201836020820111156103e357600080fd5b8035906020019184600183028401116401000000008311171561040557600080fd5b91908080601f016020809104026020016040519081016040528093929190818152602001838380828437600081840152601f19601f820116905080830192505050505050509192919290505050610667565b005b60005481565b600181805160208101820180518482526020830160208501208183528095505050505050600091509050806000018054600181600116156101000203166002900480601f0160208091040260200160405190810160405280929190818152602001828054600181600116156101000203166002900480156105215780601f106104f657610100808354040283529160200191610521565b820191906000526020600020905b81548152906001019060200180831161050457829003601f168201915b505050505090806001018054600181600116156101000203166002900480601f0160208091040260200160405190810160405280929190818152602001828054600181600116156101000203166002900480156105bf5780601f10610594576101008083540402835291602001916105bf565b820191906000526020600020905b8154815290600101906020018083116105a257829003601f168201915b505050505090806002018054600181600116156101000203166002900480601f01602080910402602001604051908101604052809291908181526020018280546001816001161561010002031660029004801561065d5780601f106106325761010080835404028352916020019161065d565b820191906000526020600020905b81548152906001019060200180831161064057829003601f168201915b5050505050905083565b60008081548092919060010191905055506040518060600160405280848152602001838152602001828152506001836040518082805190602001908083835b602083106106c957805182526020820191506020810190506020830392506106a6565b6001836020036101000a038019825116818451168082178552505050505050905001915050908152602001604051809103902060008201518160000190805190602001906107189291906108d1565b5060208201518160010190805190602001906107359291906108d1565b5060408201518160020190805190602001906107529291906108d1565b509050507fc50aadd178489c438b87db1b844b2d3380597c1c38fbcb15977a662c4404672e83838360405180806020018060200180602001848103845287818151815260200191508051906020019080838360005b838110156107c25780820151818401526020810190506107a7565b50505050905090810190601f1680156107ef5780820380516001836020036101000a031916815260200191505b50848103835286818151815260200191508051906020019080838360005b8381101561082857808201518184015260208101905061080d565b50505050905090810190601f1680156108555780820380516001836020036101000a031916815260200191505b50848103825285818151815260200191508051906020019080838360005b8381101561088e578082015181840152602081019050610873565b50505050905090810190601f1680156108bb5780820380516001836020036101000a031916815260200191505b50965050505050505060405180910390a1505050565b828054600181600116156101000203166002900490600052602060002090601f016020900481019282601f1061091257805160ff1916838001178555610940565b82800160010185558215610940579182015b8281111561093f578251825591602001919060010190610924565b5b50905061094d9190610951565b5090565b61097391905b8082111561096f576000816000905550600101610957565b5090565b9056fea265627a7a723158203a3141b3df902fb26914e05d7e6bd033878dc521869443506417433c292cce4864736f6c63430005100032",
  "source": "// SPDX-License-Identifier: MIT\r\npragma solidity >=0.4.22 <0.9.0;\r\n\r\ncontract Auth\r\n{ \r\n\tuint public userCount = 0;\r\n\r\n\tmapping(string => user) public usersList;\r\n\r\n\tstruct user\r\n\t{\r\n\tstring username;\r\n\tstring email;\r\n\tstring password;\r\n\t}\r\n\r\n// events\r\n\r\nevent userCreated(\r\n\tstring username,\r\n\tstring email,\r\n\tstring password\r\n\t);\r\n\r\nfunction createUser(string memory _username,\r\n\t\t\t\t\tstring memory _email,\r\n\t\t\t\t\tstring memory _password) public\r\n{\t \r\n\tuserCount++;\r\n\tusersList[_email] = user(_username,\r\n\t\t\t\t\t\t\t_email,\r\n\t\t\t\t\t\t\t_password);\r\n\temit userCreated(_username,\r\n\t\t\t\t\t_email,\r\n\t\t\t\t\t_password);\r\n\t}\r\n}\r\n",
  "sourcePath": "C:\\FinalProject\\contracts\\Auth.sol",
  "compiler": {
    "name": "solc",
    "version": "0.5.16+commit.9c3226ce.Emscripten.clang"
  },
  "schemaVersion": "3.4.16",
  "updatedAt": "2024-03-16T16:46:57.372Z",
  "networkType": "ethereum",
  "devdoc": {
    "methods": {}
  },
  "userdoc": {
    "methods": {}
  }
}